:100000000C9438000C9455000C9455000C94550039
:100010000C9455000C9455000C9455000C9455000C
:100020000C9455000C9455000C9455000C945500FC
:100030000C9455000C9455000C9455000C945500EC
:100040000C9457000C9455000C9455000C945500DA
:100050000C9455000C9455000C9455000C945500CC
:100060000C9455000C9455000C9455000C945500BC
:1000700011241FBECFEFD0E1DEBFCDBF11E0A0E065
:10008000B1E0E8E7FBE002C005900D92AA33B107AA
:10009000D9F711E0AAE3B1E001C01D92A639B1077A
:1000A000E1F70E9472000C94BA050C9400001F92B4
:1000B0000F920FB60F9211248F93DF93CF93CDB78A
:1000C000DEB780918D01882329F080918D018150C8
:1000D00080938D01CF91DF918F910F900FBE0F9084
:1000E0001F901895DF93CF93CDB7DEB70E94D50050
:1000F00001C0000080918D018823D9F788EC80939E
:100100008D010E948400F6CFDF93CF93CDB7DEB789
:1001100090918C0181E0892780938C018BE290E0A3
:1001200020918C01220F220FFC01208380918E01EF
:1001300090918F019C01019690938F0180938E0185
:1001400000D000D08DB79EB701964EE051E0FC0183
:1001500051834083FC01338322830E94E7020F9086
:100160000F900F900F9080EC90E0FC01808188232D
:10017000CCF486EC90E0FC018081282F30E000D0A8
:1001800000D08DB79EB7019643E151E0FC01518349
:100190004083FC01338322830E94E7020F900F907B
:1001A0000F900F90CF91DF910895DF93CF93CDB74C
:1001B000DEB78AE290E024E0FC0120838EE690E046
:1001C00022E0FC01208387E490E029EFFC012083FA
:1001D00085E490E023E0FC01208384E490E022E0C9
:1001E000FC01208310928C0188EC80938D010E9489
:1001F0001F0180E091E0909395018093940180919C
:100200009401909195019093910180939001809138
:10021000900190919101909393018093920120918C
:1002200092013091930184E291E061E070E04DE051
:1002300050E00E94B1027894CF91DF910895DF934E
:10024000CF93CDB7DEB784EC90E027E6FC012083A6
:1002500081EC90E028E1FC012083CF91DF910895AB
:10026000DF93CF9300D00F92CDB7DEB789837B8326
:100270006A838981873079F42091940130919501C6
:1002800082E391E061E070E047E050E00E94B1025B
:1002900080E090E01AC089818A3031F42A813B8164
:1002A0008DE0B9010E94300180EC90E0FC0180817A
:1002B000882F90E0807290700097B1F386EC90E008
:1002C0002981FC01208380E090E00F900F900F9037
:1002D000CF91DF910895DF93CF93CDB7DEB7279706
:1002E0000FB6F894DEBF0FBECDBF9F838E83809183
:1002F0003A0190913B01009709F014C18CE391E021
:100300009B838A8380EC90E0FC0180818823D4F772
:1003100080EC90E0FC018081882F90E080719070EB
:10032000009719F08EEF9FEF13C180EC90E0FC0175
:100330008081882F90E088709070009719F08FEF7F
:100340009FEF06C186EC90E0FC0180818983898162
:100350008D3011F48AE0898389818A3091F48A8111
:100360009B812981FC0120832E813F818981B901F4
:100370000E9430018CE391E090933B0180933A011D
:10038000D1C08981893011F480E2898389818032EA
:1003900018F089818F3718F08981803AF0F08A81CE
:1003A0009B81F1E08B389F0739F42E813F8187E0F4
:1003B000B9010E94300110C08A819B812981FC0112
:1003C00020838A819B8101969B838A832E813F8132
:1003D0008981B9010E943001A4C08981882F90E0F1
:1003E00082319105C1F1833191053CF4833091054F
:1003F00081F08830910581F085CF8731910509F42E
:1004000081C08F37910541F08531910509F45BC0BA
:1004100079CF8FEF9FEF9CC08A819B81F1E08C3375
:100420009F07C1F0B8F02E813F8188E0B9010E949A
:1004300030012E813F8180E2B9010E9430012E817E
:100440003F8188E0B9010E9430018A819B81019738
:100450009B838A8366C02E813F818DE0B9010E9413
:1004600030018CE391E09D838C830EC08C819D8153
:10047000FC0180812E813F81B9010E9430018C8175
:100480009D8101969D838C832C813D818A819B81F6
:100490002817390758F345C02E813F8188E0B901FC
:1004A0000E9430012E813F8180E2B9010E9430011B
:1004B0002E813F8188E0B9010E9430018A819B81B1
:1004C00001979B838A838A819B81F1E08C339F070C
:1004D00009F010F726C02E813F8188E0B9010E9403
:1004E00030012E813F8180E2B9010E9430012E81CE
:1004F0003F8188E0B9010E9430018A819B81019788
:100500009B838A838A819B8121E08C33920741F00F
:1005100038F08A819B810197FC0180818032D9F675
:100520000000F0CE80913A0190913B01FC012081C6
:100530002983019690933B0180933A0189818A3007
:1005400021F410923B0110923A018981882F90E0AA
:1005500027960FB6F894DEBF0FBECDBFCF91DF91C7
:100560000895A0E0B0E0E7EBF2E00C9489054B01C0
:100570005A016901D90113962C91139721FF1FC0CD
:10058000C0E0D0E014C0D6011896ED91FC91199707
:10059000D8018D918D01B6010995009791F40894C9
:1005A000E11CF11CC801E814F90468F32196CA158E
:1005B000DB0538F4082F192FEE24FF24F3CFC0E019
:1005C000D0E0CE01CDB7DEB7ECE00C94A505A0E0FD
:1005D000B0E0EDEEF2E00C949305FE0135966191EA
:1005E00071918091920190919301AF010E94FC0260
:1005F0002096E2E00C94AF05ACE0B0E0E2E0F3E07E
:100600000C9483056C011B018A01FC011782168280
:10061000838181FFD1C12E010894411C511CF60138
:100620009381F10193FD859193FF81911F018823AF
:1006300009F4BEC1853239F493FD859193FF819110
:100640001F01853229F490E0B6010E94F904E7CF3A
:10065000EE24FF2420E02032B0F48B3269F08C329B
:1006600028F4803251F0833271F40BC08D3239F0AE
:10067000803349F421602CC02260246029C02860A6
:1006800027C0206125C027FD2CC0382F30533A30B9
:1006900098F426FF08C08E2D880FE82EEE0CEE0C85
:1006A000E80EE30E15C08F2D880FF82EFF0CFF0CFF
:1006B000F80EF30E20620CC08E3221F426FD78C1B4
:1006C000206406C08C3611F4206802C0883649F4D4
:1006D000F10193FD859193FF81911F01882309F01A
:1006E000BACF982F9554933018F09052933028F445
:1006F0000C5F1F4FFFE3F9830DC0833631F0833762
:1007000071F0833509F060C022C0F80180818983CF
:100710000E5F1F4F420171E0A72EB12C16C062E0A0
:10072000662E712C600E711EF8018080918026FF6C
:1007300003C06E2D70E002C06FEF7FEFC4012C8705
:100740000E94EE045C0183012C852F7717C052E0D4
:10075000652E712C600E711EF8018080918026FF3D
:1007600003C06E2D70E002C06FEF7FEFC4012C87D5
:100770000E94E3045C012C852068830123FD20C0D6
:1007800008C080E290E0B6012C870E94F904FA9438
:100790002C858F2D90E0A816B90698F311C0F401AE
:1007A00027FD859127FF81914F0190E0B6012C87AD
:1007B0000E94F9042C85F110FA940894A108B1085C
:1007C000A114B10461F7F1C0843611F0893649F5FE
:1007D00027FF08C0F80160817181828193810C5FDD
:1007E0001F4F09C0F80160817181882777FD8095CE
:1007F000982F0E5F1F4F4FE6B42EB22297FF09C00D
:1008000090958095709561957F4F8F4F9F4FF0E841
:10081000BF2AA2012AE030E00E942505782E741834
:1008200045C0853731F43FEEB32EB2222AE030E0E6
:1008300025C099EFB92EB2228F36C1F0803720F44F
:10084000883509F0B5C00DC0803721F0883709F030
:10085000AFC002C020E1B22AB4FE0BC084E0B82AC7
:1008600008C0B4FE09C0E6E0BE2A06C028E030E0B9
:1008700005C020E130E002C020E132E0B7FE08C050
:10088000F80160817181828193810C5F1F4F07C0E5
:10089000F8016081718180E090E00E5F1F4FA2013E
:1008A0000E942505782E7418FFE7BF22B6FE0BC004
:1008B0002EEFB2227E1438F4B4FE07C0B2FC05C09D
:1008C0008FEEB82202C0A72C01C0AE2C8B2D90E079
:1008D000B4FE0DC0FE01E70DF11D2081203319F497
:1008E000E9EEBE2209C0A394B2FE06C004C0867819
:1008F0009070009709F0A3948B2C9924B3FC14C03A
:10090000B0FE0FC0AF1428F4E72CEF0CEA18AF2CA0
:1009100008C0E72C06C080E290E0B6010E94F9040E
:10092000A394AF14C0F304C0AF1410F4FA1801C0BC
:10093000FF2484FE0FC080E390E0B6010E94F9041A
:1009400082FE1FC081FE03C088E590E010C088E7EA
:1009500090E00DC0C40186789070009791F081FC02
:1009600002C080E201C08BE2B7FC8DE290E0B601EC
:100970000E94F90406C080E390E0B6010E94F904E9
:10098000EA947E14C0F37A94F201E70DF11D8081A0
:1009900090E0B6010E94F9047720A9F706C080E232
:1009A00090E0B6010E94F904FA94FF20C1F737CE17
:1009B000F6012681378102C02FEF3FEFC9012C9647
:1009C000E2E10C949F05FC0105906150704001101C
:1009D000D8F7809590958E0F9F1F0895FC01615068
:1009E000704001900110D8F7809590958E0F9F1F51
:1009F00008950F931F93CF93DF938C01EB018B81AD
:100A000081FF1BC082FF0DC02E813F818C819D81A3
:100A10002817390764F4E881F9810193F983E883A1
:100A200006C0E885F985802F0995009731F48E81FD
:100A30009F8101969F838E8302C00FEF1FEFC80135
:100A4000DF91CF911F910F910895FA01AA272830C5
:100A500051F1203181F1E8946F936E7F6E5F7F4F8B
:100A60008F4F9F4FAF4FB1E03ED0B4E03CD0670F07
:100A7000781F891F9A1FA11D680F791F8A1F911D5A
:100A8000A11D6A0F711D811D911DA11D20D009F4AA
:100A900068943F912AE0269F11243019305D3193EC
:100AA000DEF6CF010895462F4770405D4193B3E0D5
:100AB0000FD0C9F7F6CF462F4F70405D4A3318F07C
:100AC000495D31FD4052419302D0A9F7EACFB4E02D
:100AD000A6959795879577956795BA95C9F70097E5
:100AE0006105710508959B01AC010A2E0694579586
:100AF000479537952795BA95C9F7620F731F841FDD
:100B0000951FA01D08952F923F924F925F926F9272
:100B10007F928F929F92AF92BF92CF92DF92EF928D
:100B2000FF920F931F93CF93DF93CDB7DEB7CA1B0E
:100B3000DB0B0FB6F894DEBF0FBECDBF09942A8839
:100B4000398848885F846E847D848C849B84AA84E1
:100B5000B984C884DF80EE80FD800C811B81AA816E
:100B6000B981CE0FD11D0FB6F894DEBF0FBECDBF39
:080B7000ED010895F894FFCF98
:100B7800000000030000000030016B010000256444
:100B88000A0D00796F752074797065642E2E2E25F4
:100B9800630A0D005374617274696E672E2E2E0AF3
:0A0BA8000D002A72696E672A0A0028
:00000001FF
